:100000000C942A000C9447000C9447000C94470071
:100010000C9447000C9447000C9447000C94470044
:100020000C9447000C9447000C9447000C94470034
:100030000C9447000C9447000C9447000C94470024
:100040000C9447000C9447000C9447000C94470014
:100050000C94470011241FBECFE5D4E0DEBFCDBF16
:1000600010E0A0E6B0E0E8EDF0E002C005900D92EF
:10007000A036B107D9F710E0A0E6B0E001C01D92AC
:10008000A036B107E1F70E9449000C946A000C9475
:1000900000009FEF94BB8CEF8ABB97BB5FEF28EC0F
:1000A00030E04AE058BB89B3893041F418BA80E1A6
:1000B00097E2F9013197F1F70197D9F789B38823CE
:1000C00089F748BB80E197E2F9013197F1F7019791
:0800D000D9F7E8CFF894FFCF47
:00000001FF
